{
  "contractName": "Inheritance",
  "abi": [
    {
      "inputs": [],
      "stateMutability": "nonpayable",
      "type": "constructor"
    },
    {
      "anonymous": false,
      "inputs": [
        {
          "indexed": true,
          "internalType": "address",
          "name": "oldOwner",
          "type": "address"
        },
        {
          "indexed": true,
          "internalType": "address",
          "name": "newOwner",
          "type": "address"
        }
      ],
      "name": "OwnershipTransferred",
      "type": "event"
    },
    {
      "anonymous": false,
      "inputs": [
        {
          "indexed": false,
          "internalType": "address",
          "name": "account",
          "type": "address"
        }
      ],
      "name": "Paused",
      "type": "event"
    },
    {
      "anonymous": false,
      "inputs": [
        {
          "indexed": true,
          "internalType": "address",
          "name": "from",
          "type": "address"
        },
        {
          "indexed": true,
          "internalType": "address",
          "name": "to",
          "type": "address"
        },
        {
          "indexed": false,
          "internalType": "uint256",
          "name": "value",
          "type": "uint256"
        }
      ],
      "name": "Transfer",
      "type": "event"
    },
    {
      "anonymous": false,
      "inputs": [
        {
          "indexed": false,
          "internalType": "address",
          "name": "account",
          "type": "address"
        }
      ],
      "name": "Unpaused",
      "type": "event"
    },
    {
      "inputs": [
        {
          "internalType": "uint256",
          "name": "",
          "type": "uint256"
        }
      ],
      "name": "Oracles",
      "outputs": [
        {
          "internalType": "address",
          "name": "account",
          "type": "address"
        },
        {
          "internalType": "uint256",
          "name": "vote",
          "type": "uint256"
        },
        {
          "internalType": "string",
          "name": "signature",
          "type": "string"
        }
      ],
      "stateMutability": "view",
      "type": "function"
    },
    {
      "inputs": [],
      "name": "OraclesCount",
      "outputs": [
        {
          "internalType": "uint256",
          "name": "",
          "type": "uint256"
        }
      ],
      "stateMutability": "view",
      "type": "function"
    },
    {
      "inputs": [],
      "name": "Unlocked",
      "outputs": [
        {
          "internalType": "uint256",
          "name": "",
          "type": "uint256"
        }
      ],
      "stateMutability": "view",
      "type": "function"
    },
    {
      "inputs": [],
      "name": "creator",
      "outputs": [
        {
          "internalType": "address",
          "name": "",
          "type": "address"
        }
      ],
      "stateMutability": "view",
      "type": "function"
    },
    {
      "inputs": [],
      "name": "owner",
      "outputs": [
        {
          "internalType": "address",
          "name": "",
          "type": "address"
        }
      ],
      "stateMutability": "view",
      "type": "function"
    },
    {
      "inputs": [],
      "name": "paused",
      "outputs": [
        {
          "internalType": "bool",
          "name": "",
          "type": "bool"
        }
      ],
      "stateMutability": "view",
      "type": "function"
    },
    {
      "inputs": [],
      "name": "token",
      "outputs": [
        {
          "internalType": "contract ERC20",
          "name": "",
          "type": "address"
        }
      ],
      "stateMutability": "view",
      "type": "function"
    },
    {
      "inputs": [
        {
          "internalType": "address",
          "name": "newOwner",
          "type": "address"
        }
      ],
      "name": "transferOwnership",
      "outputs": [],
      "stateMutability": "nonpayable",
      "type": "function"
    },
    {
      "inputs": [],
      "name": "getFeeToken",
      "outputs": [
        {
          "internalType": "address",
          "name": "",
          "type": "address"
        }
      ],
      "stateMutability": "pure",
      "type": "function"
    },
    {
      "inputs": [
        {
          "internalType": "address[]",
          "name": "_oracles",
          "type": "address[]"
        }
      ],
      "name": "setOracles",
      "outputs": [],
      "stateMutability": "nonpayable",
      "type": "function"
    },
    {
      "inputs": [
        {
          "internalType": "string",
          "name": "_signature",
          "type": "string"
        }
      ],
      "name": "vote",
      "outputs": [
        {
          "internalType": "bool",
          "name": "success",
          "type": "bool"
        }
      ],
      "stateMutability": "nonpayable",
      "type": "function"
    },
    {
      "inputs": [
        {
          "internalType": "address",
          "name": "_receiver",
          "type": "address"
        },
        {
          "internalType": "uint256",
          "name": "_value",
          "type": "uint256"
        }
      ],
      "name": "lock",
      "outputs": [
        {
          "internalType": "bool",
          "name": "success",
          "type": "bool"
        }
      ],
      "stateMutability": "nonpayable",
      "type": "function"
    },
    {
      "inputs": [],
      "name": "withdraw",
      "outputs": [
        {
          "internalType": "bool",
          "name": "success",
          "type": "bool"
        }
      ],
      "stateMutability": "nonpayable",
      "type": "function"
    }
  ],
  "bytecode": "0x60806040525f600555348015610013575f80fd5b505f805f6101000a81548160ff02191690831515021790555061003b336100d460201b60201c565b3360045f6101000a81548173ffffffffffffffffffffffffffffffffffffffff021916908373ffffffffffffffffffffffffffffffffffffffff160217905550738a60b51435ac1bc9d81fc76a7503144da071af2c60015f6101000a81548173ffffffffffffffffffffffffffffffffffffffff021916908373ffffffffffffffffffffffffffffffffffffffff160217905550610197565b5f8060019054906101000a900473ffffffffffffffffffffffffffffffffffffffff169050815f60016101000a81548173ffffffffffffffffffffffffffffffffffffffff021916908373ffffffffffffffffffffffffffffffffffffffff1602179055508173ffffffffffffffffffffffffffffffffffffffff168173ffffffffffffffffffffffffffffffffffffffff167f8be0079c531659141344cd1fd0a4f28419497f9722a3daafe3b4186f6b6457e060405160405180910390a35050565b611dd1806101a45f395ff3fe608060405234801561000f575f80fd5b50600436106100cd575f3560e01c80638da5cb5b1161008a578063ca709a2511610064578063ca709a2514610203578063f2fde38b14610221578063fc0c546a1461023d578063fc36e15b1461025b576100cd565b80638da5cb5b146101ab57806396fe6235146101c9578063ae9b71af146101e7576100cd565b8063014cf7dd146100d157806302d05d3f1461010357806319aad37114610121578063282d3fdf1461013f5780633ccfd60b1461016f5780635c975abb1461018d575b5f80fd5b6100eb60048036038101906100e69190611009565b61028b565b6040516100fa9392919061110c565b60405180910390f35b61010b610356565b6040516101189190611148565b60405180910390f35b61012961037b565b6040516101369190611161565b60405180910390f35b610159600480360381019061015491906111a4565b610381565b60405161016691906111fc565b60405180910390f35b6101776105e2565b60405161018491906111fc565b60405180910390f35b61019561092b565b6040516101a291906111fc565b60405180910390f35b6101b361093f565b6040516101c09190611148565b60405180910390f35b6101d1610967565b6040516101de9190611161565b60405180910390f35b61020160048036038101906101fc9190611276565b61096d565b005b61020b610b86565b6040516102189190611148565b60405180910390f35b61023b600480360381019061023691906112c1565b610ba1565b005b610245610c90565b6040516102529190611347565b60405180910390f35b610275600480360381019061027091906113b5565b610cb5565b60405161028291906111fc565b60405180910390f35b6002602052805f5260405f205f91509050805f015f9054906101000a900473ffffffffffffffffffffffffffffffffffffffff16908060010154908060020180546102d59061142d565b80601f01602080910402602001604051908101604052809291908181526020018280546103019061142d565b801561034c5780601f106103235761010080835404028352916020019161034c565b820191905f5260205f20905b81548152906001019060200180831161032f57829003601f168201915b5050505050905083565b60045f9054906101000a900473ffffffffffffffffffffffffffffffffffffffff1681565b60055481565b5f3373ffffffffffffffffffffffffffffffffffffffff166103a161093f565b73ffffffffffffffffffffffffffffffffffffffff16146103f7576040517f08c379a00000000000000000000000000000000000000000000000000000000081526004016103ee906114a7565b60405180910390fd5b6103ff61092b565b1561043f576040517f08c379a00000000000000000000000000000000000000000000000000000000081526004016104369061150f565b60405180910390fd5b60015f9054906101000a900473ffffffffffffffffffffffffffffffffffffffff1673ffffffffffffffffffffffffffffffffffffffff166323b872dd3330856040518463ffffffff1660e01b815260040161049d9392919061152d565b6020604051808303815f875af11580156104b9573d5f803e3d5ffd5b505050506040513d601f19601f820116820180604052508101906104dd919061158c565b506105308260065f8673ffffffffffffffffffffffffffffffffffffffff1673ffffffffffffffffffffffffffffffffffffffff1681526020019081526020015f205f0154610e5b90919063ffffffff16565b60065f8573ffffffffffffffffffffffffffffffffffffffff1673ffffffffffffffffffffffffffffffffffffffff1681526020019081526020015f205f01819055503073ffffffffffffffffffffffffffffffffffffffff163373ffffffffffffffffffffffffffffffffffffffff167fddf252ad1be2c89b69c2b068fc378daa952ba7f163c4a11628f55a4df523b3ef846040516105d09190611161565b60405180910390a36001905092915050565b5f6105eb61092b565b1561062b576040517f08c379a00000000000000000000000000000000000000000000000000000000081526004016106229061150f565b60405180910390fd5b5f6005541161066f576040517f08c379a000000000000000000000000000000000000000000000000000000000815260040161066690611601565b60405180910390fd5b5f60065f3373ffffffffffffffffffffffffffffffffffffffff1673ffffffffffffffffffffffffffffffffffffffff1681526020019081526020015f205f015490505f81116106f4576040517f08c379a00000000000000000000000000000000000000000000000000000000081526004016106eb90611669565b60405180910390fd5b6107468160065f3373ffffffffffffffffffffffffffffffffffffffff1673ffffffffffffffffffffffffffffffffffffffff1681526020019081526020015f205f0154610eb390919063ffffffff16565b60065f3373ffffffffffffffffffffffffffffffffffffffff1673ffffffffffffffffffffffffffffffffffffffff1681526020019081526020015f205f018190555060015f9054906101000a900473ffffffffffffffffffffffffffffffffffffffff1673ffffffffffffffffffffffffffffffffffffffff166323b872dd3033846040518463ffffffff1660e01b81526004016107e79392919061152d565b6020604051808303815f875af1158015610803573d5f803e3d5ffd5b505050506040513d601f19601f82011682018060405250810190610827919061158c565b5061087a8160065f3373ffffffffffffffffffffffffffffffffffffffff1673ffffffffffffffffffffffffffffffffffffffff1681526020019081526020015f205f0154610e5b90919063ffffffff16565b60065f3373ffffffffffffffffffffffffffffffffffffffff1673ffffffffffffffffffffffffffffffffffffffff1681526020019081526020015f20600101819055503373ffffffffffffffffffffffffffffffffffffffff163073ffffffffffffffffffffffffffffffffffffffff167fddf252ad1be2c89b69c2b068fc378daa952ba7f163c4a11628f55a4df523b3ef8360405161091b9190611161565b60405180910390a3600191505090565b5f805f9054906101000a900460ff16905090565b5f8060019054906101000a900473ffffffffffffffffffffffffffffffffffffffff16905090565b60035481565b3373ffffffffffffffffffffffffffffffffffffffff1661098c61093f565b73ffffffffffffffffffffffffffffffffffffffff16146109e2576040517f08c379a00000000000000000000000000000000000000000000000000000000081526004016109d9906114a7565b60405180910390fd5b60045f9054906101000a900473ffffffffffffffffffffffffffffffffffffffff1673ffffffffffffffffffffffffffffffffffffffff163373ffffffffffffffffffffffffffffffffffffffff1614610a71576040517f08c379a0000000000000000000000000000000000000000000000000000000008152600401610a68906116d1565b60405180910390fd5b5f600581905550818190506003819055505f5b82829050811015610b81576040518060600160405280848484818110610aad57610aac6116ef565b5b9050602002016020810190610ac291906112c1565b73ffffffffffffffffffffffffffffffffffffffff1681526020016001815260200160405180602001604052805f81525081525060025f8381526020019081526020015f205f820151815f015f6101000a81548173ffffffffffffffffffffffffffffffffffffffff021916908373ffffffffffffffffffffffffffffffffffffffff160217905550602082015181600101556040820151816002019081610b6a91906118dd565b509050508080610b79906119d9565b915050610a84565b505050565b5f738a60b51435ac1bc9d81fc76a7503144da071af2c905090565b3373ffffffffffffffffffffffffffffffffffffffff16610bc061093f565b73ffffffffffffffffffffffffffffffffffffffff1614610c16576040517f08c379a0000000000000000000000000000000000000000000000000000000008152600401610c0d906114a7565b60405180910390fd5b5f73ffffffffffffffffffffffffffffffffffffffff168173ffffffffffffffffffffffffffffffffffffffff1603610c84576040517f08c379a0000000000000000000000000000000000000000000000000000000008152600401610c7b90611a6a565b60405180910390fd5b610c8d81610f0b565b50565b60015f9054906101000a900473ffffffffffffffffffffffffffffffffffffffff1681565b5f610cbe61092b565b15610cfe576040517f08c379a0000000000000000000000000000000000000000000000000000000008152600401610cf59061150f565b60405180910390fd5b5f805f5b600354811015610de5573373ffffffffffffffffffffffffffffffffffffffff1660025f8381526020019081526020015f205f015f9054906101000a900473ffffffffffffffffffffffffffffffffffffffff1673ffffffffffffffffffffffffffffffffffffffff1603610d9a57858560025f8481526020019081526020015f206002019182610d94929190611a92565b50600191505b5f60025f8381526020019081526020015f206002018054610dba9061142d565b90501115610dd257600183610dcf9190611b5f565b92505b8080610ddd906119d9565b915050610d02565b5080610e26576040517f08c379a0000000000000000000000000000000000000000000000000000000008152600401610e1d90611bdc565b60405180910390fd5b600380546002610e369190611bfa565b610e409190611c68565b8210610e4f5760016005819055505b60019250505092915050565b5f8183610e689190611b5f565b905082811015610ead576040517f08c379a0000000000000000000000000000000000000000000000000000000008152600401610ea490611ce2565b60405180910390fd5b92915050565b5f82821115610ef7576040517f08c379a0000000000000000000000000000000000000000000000000000000008152600401610eee90611d4a565b60405180910390fd5b8183610f039190611d68565b905092915050565b5f8060019054906101000a900473ffffffffffffffffffffffffffffffffffffffff169050815f60016101000a81548173ffffffffffffffffffffffffffffffffffffffff021916908373ffffffffffffffffffffffffffffffffffffffff1602179055508173ffffffffffffffffffffffffffffffffffffffff168173ffffffffffffffffffffffffffffffffffffffff167f8be0079c531659141344cd1fd0a4f28419497f9722a3daafe3b4186f6b6457e060405160405180910390a35050565b5f80fd5b5f80fd5b5f819050919050565b610fe881610fd6565b8114610ff2575f80fd5b50565b5f8135905061100381610fdf565b92915050565b5f6020828403121561101e5761101d610fce565b5b5f61102b84828501610ff5565b91505092915050565b5f73ffffffffffffffffffffffffffffffffffffffff82169050919050565b5f61105d82611034565b9050919050565b61106d81611053565b82525050565b61107c81610fd6565b82525050565b5f81519050919050565b5f82825260208201905092915050565b5f5b838110156110b957808201518184015260208101905061109e565b5f8484015250505050565b5f601f19601f8301169050919050565b5f6110de82611082565b6110e8818561108c565b93506110f881856020860161109c565b611101816110c4565b840191505092915050565b5f60608201905061111f5f830186611064565b61112c6020830185611073565b818103604083015261113e81846110d4565b9050949350505050565b5f60208201905061115b5f830184611064565b92915050565b5f6020820190506111745f830184611073565b92915050565b61118381611053565b811461118d575f80fd5b50565b5f8135905061119e8161117a565b92915050565b5f80604083850312156111ba576111b9610fce565b5b5f6111c785828601611190565b92505060206111d885828601610ff5565b9150509250929050565b5f8115159050919050565b6111f6816111e2565b82525050565b5f60208201905061120f5f8301846111ed565b92915050565b5f80fd5b5f80fd5b5f80fd5b5f8083601f84011261123657611235611215565b5b8235905067ffffffffffffffff81111561125357611252611219565b5b60208301915083602082028301111561126f5761126e61121d565b5b9250929050565b5f806020838503121561128c5761128b610fce565b5b5f83013567ffffffffffffffff8111156112a9576112a8610fd2565b5b6112b585828601611221565b92509250509250929050565b5f602082840312156112d6576112d5610fce565b5b5f6112e384828501611190565b91505092915050565b5f819050919050565b5f61130f61130a61130584611034565b6112ec565b611034565b9050919050565b5f611320826112f5565b9050919050565b5f61133182611316565b9050919050565b61134181611327565b82525050565b5f60208201905061135a5f830184611338565b92915050565b5f8083601f84011261137557611374611215565b5b8235905067ffffffffffffffff81111561139257611391611219565b5b6020830191508360018202830111156113ae576113ad61121d565b5b9250929050565b5f80602083850312156113cb576113ca610fce565b5b5f83013567ffffffffffffffff8111156113e8576113e7610fd2565b5b6113f485828601611360565b92509250509250929050565b7f4e487b71000000000000000000000000000000000000000000000000000000005f52602260045260245ffd5b5f600282049050600182168061144457607f821691505b60208210810361145757611456611400565b5b50919050565b7f4f776e61626c653a2063616c6c6572206973206e6f7420746865206f776e65725f82015250565b5f61149160208361108c565b915061149c8261145d565b602082019050919050565b5f6020820190508181035f8301526114be81611485565b9050919050565b7f5061757361626c653a20706175736564000000000000000000000000000000005f82015250565b5f6114f960108361108c565b9150611504826114c5565b602082019050919050565b5f6020820190508181035f830152611526816114ed565b9050919050565b5f6060820190506115405f830186611064565b61154d6020830185611064565b61155a6040830184611073565b949350505050565b61156b816111e2565b8114611575575f80fd5b50565b5f8151905061158681611562565b92915050565b5f602082840312156115a1576115a0610fce565b5b5f6115ae84828501611578565b91505092915050565b7f49742773206e6f74207468652074696d652079657400000000000000000000005f82015250565b5f6115eb60158361108c565b91506115f6826115b7565b602082019050919050565b5f6020820190508181035f830152611618816115df565b9050919050565b7f4e6f206c6f636b65642076616c756500000000000000000000000000000000005f82015250565b5f611653600f8361108c565b915061165e8261161f565b602082019050919050565b5f6020820190508181035f83015261168081611647565b9050919050565b7f6e6f7420617574686f72697a65640000000000000000000000000000000000005f82015250565b5f6116bb600e8361108c565b91506116c682611687565b602082019050919050565b5f6020820190508181035f8301526116e8816116af565b9050919050565b7f4e487b71000000000000000000000000000000000000000000000000000000005f52603260045260245ffd5b7f4e487b71000000000000000000000000000000000000000000000000000000005f52604160045260245ffd5b5f819050815f5260205f209050919050565b5f6020601f8301049050919050565b5f82821b905092915050565b5f600883026117a57fffffffffffffffffffffffffffffffffffffffffffffffffffffffffffffffff8261176a565b6117af868361176a565b95508019841693508086168417925050509392505050565b5f6117e16117dc6117d784610fd6565b6112ec565b610fd6565b9050919050565b5f819050919050565b6117fa836117c7565b61180e611806826117e8565b848454611776565b825550505050565b5f90565b611822611816565b61182d8184846117f1565b505050565b5b81811015611850576118455f8261181a565b600181019050611833565b5050565b601f8211156118955761186681611749565b61186f8461175b565b8101602085101561187e578190505b61189261188a8561175b565b830182611832565b50505b505050565b5f82821c905092915050565b5f6118b55f198460080261189a565b1980831691505092915050565b5f6118cd83836118a6565b9150826002028217905092915050565b6118e682611082565b67ffffffffffffffff8111156118ff576118fe61171c565b5b611909825461142d565b611914828285611854565b5f60209050601f831160018114611945575f8415611933578287015190505b61193d85826118c2565b8655506119a4565b601f19841661195386611749565b5f5b8281101561197a57848901518255600182019150602085019450602081019050611955565b868310156119975784890151611993601f8916826118a6565b8355505b6001600288020188555050505b505050505050565b7f4e487b71000000000000000000000000000000000000000000000000000000005f52601160045260245ffd5b5f6119e382610fd6565b91507fffffffffffffffffffffffffffffffffffffffffffffffffffffffffffffffff8203611a1557611a146119ac565b5b600182019050919050565b7f496e76616c6964206f776e6572206164647265737300000000000000000000005f82015250565b5f611a5460158361108c565b9150611a5f82611a20565b602082019050919050565b5f6020820190508181035f830152611a8181611a48565b9050919050565b5f82905092915050565b611a9c8383611a88565b67ffffffffffffffff811115611ab557611ab461171c565b5b611abf825461142d565b611aca828285611854565b5f601f831160018114611af7575f8415611ae5578287013590505b611aef85826118c2565b865550611b56565b601f198416611b0586611749565b5f5b82811015611b2c57848901358255600182019150602085019450602081019050611b07565b86831015611b495784890135611b45601f8916826118a6565b8355505b6001600288020188555050505b50505050505050565b5f611b6982610fd6565b9150611b7483610fd6565b9250828201905080821115611b8c57611b8b6119ac565b5b92915050565b7f4e6f7420616c6c6f77656420746f20766f7465000000000000000000000000005f82015250565b5f611bc660138361108c565b9150611bd182611b92565b602082019050919050565b5f6020820190508181035f830152611bf381611bba565b9050919050565b5f611c0482610fd6565b9150611c0f83610fd6565b9250828202611c1d81610fd6565b91508282048414831517611c3457611c336119ac565b5b5092915050565b7f4e487b71000000000000000000000000000000000000000000000000000000005f52601260045260245ffd5b5f611c7282610fd6565b9150611c7d83610fd6565b925082611c8d57611c8c611c3b565b5b828204905092915050565b7f536166654d6174683a206164646974696f6e206f766572666c6f7700000000005f82015250565b5f611ccc601b8361108c565b9150611cd782611c98565b602082019050919050565b5f6020820190508181035f830152611cf981611cc0565b9050919050565b7f536166654d6174683a207375627472616374696f6e206f766572666c6f7700005f82015250565b5f611d34601e8361108c565b9150611d3f82611d00565b602082019050919050565b5f6020820190508181035f830152611d6181611d28565b9050919050565b5f611d7282610fd6565b9150611d7d83610fd6565b9250828203905081811115611d9557611d946119ac565b5b9291505056fea2646970667358221220ef85d90e966b59e5e1b7752e4f989e1d95b630d3b6c7cd167a6e5ce256824f8f64736f6c63430008150033",
  "immutableReferences": {},
  "source": "// SPDX-License-Identifier: MIT\r\npragma solidity ^0.8.0;\r\n\r\nimport \"./SafeMath.sol\";\r\nimport \"./ERC20.sol\";\r\nimport \"./Pausable.sol\";\r\nimport \"./Ownable.sol\";\r\n\r\ncontract Inheritance is Pausable, Ownable {\r\n\r\n    using SafeMath for uint256;\r\n\r\n    address constant TOKEN = 0x8A60B51435aC1Bc9D81Fc76A7503144DA071aF2c;\r\n\r\n    ERC20 public token;\r\n\r\n    struct Oracle {\r\n        address account;\r\n        uint256 vote;\r\n        string signature;\r\n    }\r\n\r\n    mapping(uint => Oracle) public Oracles;\r\n\r\n    uint256 public OraclesCount;\r\n\r\n    address public creator;\r\n\r\n    uint256 public Unlocked = 0;\r\n\r\n    event Transfer(address indexed from, address indexed to, uint256 value);\r\n\r\n    struct Account {\r\n        uint256 locked;\r\n        uint256 paid;\r\n    }\r\n\r\n    mapping(address => Account) accounts;\r\n\r\n    constructor() {\r\n        creator = msg.sender;\r\n        token = ERC20(TOKEN);\r\n    }\r\n\r\n// function getFeeToken() public pure returns (address) {\r\n//     return TOKEN;\r\n// }\r\n    function getFeeToken() public pure returns (address) {\r\n        return TOKEN;\r\n    }\r\n\r\n    function setOracles(address[] calldata _oracles) public onlyOwner {\r\n        require(msg.sender == creator, \"not authorized\");\r\n\r\n        Unlocked = 0;\r\n        OraclesCount = _oracles.length;\r\n\r\n        for (uint256 i = 0; i < _oracles.length; i++){\r\n            Oracles[i] = Oracle(_oracles[i], 1, \"\");\r\n        }\r\n    }\r\n\r\n    function vote(string calldata _signature) whenNotPaused public returns (bool success) {\r\n        uint256 v = 0;\r\n        bool found = false;\r\n        for (uint256 i = 0; i < OraclesCount; i++){\r\n            if (Oracles[i].account == msg.sender) {\r\n                Oracles[i].signature = _signature;\r\n                found = true;\r\n            }\r\n            if (bytes(Oracles[i].signature).length > 0) {\r\n                v = v + 1;\r\n            }\r\n        }\r\n        require(found, \"Not allowed to vote\");\r\n        if (v >= 2 * OraclesCount / 3) {\r\n            Unlocked = 1;\r\n        }\r\n\r\n        return true;\r\n    }\r\n\r\n    function lock(address _receiver, uint256 _value) onlyOwner whenNotPaused public returns (bool success) {\r\n        token.transferFrom(msg.sender, address(this), _value);\r\n\r\n        accounts[_receiver].locked = accounts[_receiver].locked.add(_value);\r\n\r\n        emit Transfer(msg.sender, address(this), _value);\r\n        return true;\r\n    }\r\n\r\n    function withdraw() whenNotPaused public returns (bool success) {\r\n        require(Unlocked > 0, \"It's not the time yet\");\r\n\r\n        uint256 amount = accounts[msg.sender].locked;\r\n        require(amount > 0, \"No locked value\");\r\n\r\n        accounts[msg.sender].locked = accounts[msg.sender].locked.sub(amount);\r\n        token.transferFrom(address(this), msg.sender, amount);\r\n        accounts[msg.sender].paid = accounts[msg.sender].locked.add(amount);\r\n\r\n        emit Transfer(address(this), msg.sender, amount);\r\n        return true;\r\n    }\r\n}\r\n",
  "sourcePath": "D:\\DEVELOPMENT\\Blockchain\\WillInheritance\\inheritable\\contracts\\Inheritance.sol",
  "compiler": {
    "name": "solc",
    "version": "0.8.21+commit.d9974bed.Emscripten.clang"
  },
  "schemaVersion": "3.4.16",
  "updatedAt": "2024-04-14T14:21:34.689Z",
  "devdoc": {
    "events": {
      "Paused(address)": {
        "details": "Emitted when the pause is triggered by `account`."
      },
      "Unpaused(address)": {
        "details": "Emitted when the pause is lifted by `account`."
      }
    },
    "kind": "dev",
    "methods": {
      "paused()": {
        "details": "Returns true if the contract is paused, and false otherwise."
      }
    },
    "version": 1
  },
  "userdoc": {
    "kind": "user",
    "methods": {},
    "version": 1
  }
}